{
    "contractName": "HelloBlockchain",
    "abi": [
        {
            "anonymous": false,
            "inputs": [
                {
                    "indexed": false,
                    "internalType": "string",
                    "name": "word",
                    "type": "string"
                }
            ],
            "name": "newWord",
            "type": "event"
        },
        {
            "anonymous": false,
            "inputs": [
                {
                    "indexed": false,
                    "internalType": "bool",
                    "name": "exist",
                    "type": "bool"
                }
            ],
            "name": "wordExist",
            "type": "event"
        },
        {
            "inputs": [
                {
                    "internalType": "string",
                    "name": "",
                    "type": "string"
                }
            ],
            "name": "Words",
            "outputs": [
                {
                    "internalType": "bool",
                    "name": "",
                    "type": "bool"
                }
            ],
            "stateMutability": "view",
            "type": "function"
        },
        {
            "inputs": [
                {
                    "internalType": "string",
                    "name": "_name",
                    "type": "string"
                }
            ],
            "name": "_addWord",
            "outputs": [],
            "stateMutability": "nonpayable",
            "type": "function"
        },
        {
            "inputs": [
                {
                    "internalType": "string",
                    "name": "_word",
                    "type": "string"
                }
            ],
            "name": "_verifyWord",
            "outputs": [
                {
                    "internalType": "bool",
                    "name": "",
                    "type": "bool"
                }
            ],
            "stateMutability": "nonpayable",
            "type": "function"
        }
    ],
    "bytecode": "608060405234801561001057600080fd5b50610579806100206000396000f3fe608060405234801561001057600080fd5b50600436106100415760003560e01c80634bac4ee9146100465780638ab6972214610100578063aecfb8b6146101a8575b600080fd5b6100ec6004803603602081101561005c57600080fd5b81019060208101813564010000000081111561007757600080fd5b82018360208201111561008957600080fd5b803590602001918460018302840111640100000000831117156100ab57600080fd5b91908080601f01602080910402602001604051908101604052809392919081815260200183838082843760009201919091525092955061024e945050505050565b604080519115158252519081900360200190f35b6101a66004803603602081101561011657600080fd5b81019060208101813564010000000081111561013157600080fd5b82018360208201111561014357600080fd5b8035906020019184600183028401116401000000008311171561016557600080fd5b91908080601f01602080910402602001604051908101604052809392919081815260200183838082843760009201919091525092955061026e945050505050565b005b6100ec600480360360208110156101be57600080fd5b8101906020810181356401000000008111156101d957600080fd5b8201836020820111156101eb57600080fd5b8035906020019184600183028401116401000000008311171561020d57600080fd5b91908080601f0160208091040260200160405190810160405280939291908181526020018383808284376000920191909152509295506103b3945050505050565b805160208183018101805160018252928201919093012091525460ff1681565b6000805460018101825590805281516102ae917f290decd9548b62a8d60345a988386fc84ba6bc95484008f6362f93160ef3e563019060208401906104b0565b50600180826040518082805190602001908083835b602083106102e25780518252601f1990920191602091820191016102c3565b51815160209384036101000a6000190180199092169116179052920194855250604080519485900382018520805460ff19169615159690961790955580845285518482015285517f0a31e7254303ad6865123723be2c6ee61cab2f5494e20ebce6b3ad4e3f680818958795945084935083019185019080838360005b8381101561037657818101518382015260200161035e565b50505050905090810190601f1680156103a35780820380516001836020036101000a031916815260200191505b509250505060405180910390a150565b60007f0fd6742c87dd1a7f9e834c906810c75b4043d96397c73bd6a6f953b617d33f256001836040518082805190602001908083835b602083106104085780518252601f1990920191602091820191016103e9565b51815160209384036101000a60001901801990921691161790529201948552506040805194859003820185205460ff161515855251938490030192915050a16001826040518082805190602001908083835b602083106104795780518252601f19909201916020918201910161045a565b51815160209384036101000a600019018019909216911617905292019485525060405193849003019092205460ff16949350505050565b828054600181600116156101000203166002900490600052602060002090601f016020900481019282601f106104f157805160ff191683800117855561051e565b8280016001018555821561051e579182015b8281111561051e578251825591602001919060010190610503565b5061052a92915061052e565b5090565b5b8082111561052a576000815560010161052f56fea26469706673582212202d47a92ae5b253c53f6f5874d1f42472d7dcc6bd776f7c05bb13f749b126fe6a64736f6c63430007000033",
    "sourcePath": "c:/Users/Tobias/OneDrive/Área de Trabalho/ContractProject/contracts/contract.sol",
    "compiler": {
        "name": "solc",
        "version": "0.7.0+commit.9e61f92b"
    },
    "functionHashes": {
        "Words(string)": "4bac4ee9",
        "_addWord(string)": "8ab69722",
        "_verifyWord(string)": "aecfb8b6"
    },
    "gasEstimates": {
        "creation": {
            "codeDepositCost": "280200",
            "executionCost": "318",
            "totalCost": "280518"
        },
        "external": {
            "Words(string)": "infinite",
            "_addWord(string)": "infinite",
            "_verifyWord(string)": "infinite"
        }
    }
}